:020000040800F2
:10000000280F0020B9030008C9120008C112000817
:10001000C5120008250400085D1400080000000057
:100020000000000000000000000000007513000840
:10003000290400080000000071010008A303000863
:10004000D3030008D3030008D3030008D303000838
:10005000D3030008D3030008D3030008D303000828
:10006000D3030008D3030008D3030008D303000818
:10007000D3030008D3030008D3030008D303000808
:10008000D3030008D3030008D3030008D3030008F8
:10009000D3030008D3030008D3030008D3030008E8
:1000A000D3030008D3030008D3030008D3030008D8
:1000B000D3030008D3030008D3030008D3030008C8
:1000C000D3030008D3030008D3030008D3030008B8
:1000D000D3030008D3030008D3030008D3030008A8
:1000E000D3030008D3030008D3030008D303000898
:1000F000D3030008D3030008D3030008D303000888
:10010000D3030008D3030008D3030008D303000877
:10011000D3030008D3030008D3030008D303000867
:10012000D3030008D3030008D3030008D303000857
:10013000DFF80CD000F064F900480047712A00088D
:10014000280F002000000000000000000000000058
:100150004FF00000224A106062B64FF080504FF01E
:10016000E021C1F8040DBFF34F8FBFF36F8FFEE79F
:100170001C481D4A4FF00003016869B10360EFF3AA
:10018000098C2CE9F00F194C4CF804ED2568C1F8E6
:1001900008C00DB18D61236072B6116889B101602C
:1001A00062B64F68124C8D6907F101074F602560F8
:1001B000D1F808C05CF804EBBCE8F00F8CF30988B8
:1001C000704772B61168016009B962B6F9E74FF07D
:1001D00000674FF0E028C8F8047D62B6E1E700BF91
:1001E00078000020680000206C0000206C060020D1
:1001F0006C0600200000000000000000000000006D
:10020000026922F00702A2F144026FF002031360B8
:100210004FF0000353609360D360136153619361A7
:10022000D361136253629362D362136353634FF0DB
:10023000FF339363D1634FF0807313648260704720
:100240002249086800F101000860214B1A683AB1A0
:10025000A2F101021A601AB91E4B4FF0010018609A
:100260001D490868026822B11C4B4FF001021A6058
:1002700008E000F104001A4B1A68904201D1194BB2
:1002800018680860184B1A6812B918490868D0B184
:100290002DE901401649086808B101F0B9FF154B76
:1002A0001A6872B101F010FF1348016849B9134888
:1002B0000168134A136813484FF08052994200D0E6
:1002C0000260BDE80140BFF34F8F7047B4010020CA
:1002D0006C060020180100201001002014010020ED
:1002E000A0010020A401002018010020140100201A
:1002F0001401002018010020780000206800002070
:100300006C00002004ED00E0000000000000000090
:1003100044000020280F00200000000804010020F5
:1003200000000008001000E03F1901000000FF403D
:1003300072B65FF824005FF8241001F10401016037
:100340004FF0E0205FF83010C0F8081D5FF834006F
:100350005FF83410096801605FF83800016841F007
:10036000010101604FF0E0205FF8441041614FF05F
:10037000070101614FF00001C0F8181D4FF07F41E7
:10038000C0F81C1D5FF85C10C0F8201D7047FFF717
:10039000FEBFFFF7FEBFFFF7FEBF01B5BDE801409E
:1003A000704701B5FFF74CFFBDE801407047FFF70C
:1003B000FEBFFFF7FEBF0000064880470648004723
:1003C000FEE7FEE7FEE7FEE7FEE7FEE7FEE7FEE705
:1003D000FEE7FEE75914000831010008D2B201E03F
:1003E00000F8012B491EFBD270470022F6E710B53A
:1003F00013460A4604461946FFF7F0FF204610BD93
:10040000064C074D06E0E06840F0010394E8070061
:1004100098471034AC42F6D3FFF78EFE102B00083D
:10042000302B0008FFE7FEE770470000FFE7FEE71C
:1004300092B01190109100200F900B90FFE7109850
:1004400000680F99C840002800F09B81FFE70F99D2
:10045000012088400E90109800680E9908400D9079
:100460000D980E99884240F08881FFE71098406807
:100470000790002851D0FFE7079801283AD0FFE7FE
:10048000079802283FD0FFE7079803285FD0FFE7CF
:100490000798112832D0FFE70798122838D0FFE7D5
:1004A00007980021C1F21101884236D0FFE7079872
:1004B0000021C1F2120188422FD0FFE707980021E6
:1004C000C1F22101884228D0FFE707980021C1F23C
:1004D0002201884221D0FFE707980021C1F23101B3
:1004E00088421AD0FFE707980021C1F23201884202
:1004F00013D02FE01098C0680B902CE01098C068C3
:1005000004300B9027E01098C06808300B9022E070
:100510001098C0680C300B901DE01098806818B9D6
:10052000FFE704200B9011E010988068012806D1A5
:10053000FFE708200B900E981199086105E008204C
:100540000B900E9811994861FFE7FFE703E0002048
:100550000B9000E0FFE70D98FF2803D8FFE7119804
:10056000069003E0119804300690FFE706980A9081
:100570000D98FF2804D8FFE70F988000059006E04B
:100580000F996FF01F0000EB81000590FFE70598C1
:1005900009900A980068099A0F21914088430B99A5
:1005A000914008430A9908601098C079C006002855
:1005B00040F1E280FFE7FFE741F21800C4F20200D9
:1005C000016841F001010160006800F0010008903D
:1005D0000898FFE70F9820F003000821C4F20101FA
:1005E00040580C900F9800F0030081000F2000FA93
:1005F00001F10C9888430C90119840F60001C4F268
:100600000101884203D1FFE70020049042E01198E5
:1006100040F60041C4F20101884203D1FFE7012006
:10062000039034E0119841F20001C4F201018842C4
:1006300003D1FFE70220029026E0119841F2004129
:10064000C4F20101884203D1FFE70320019018E0C2
:10065000119841F60001C4F20101884203D1FFE77D
:10066000042000900AE0119941F60042C4F2010210
:100670000620914208BF05200090FFE700980190F6
:10068000FFE701980290FFE702980390FFE70398C5
:100690000490FFE704980F9901F00301890000FA24
:1006A00001F10C9808430C900C980F9921F003016C
:1006B0000822C4F20102885010988079C00748B11E
:1006C000FFE70D9A40F20041C4F2010108681043AF
:1006D000086008E00D9A40F20041C4F20101086888
:1006E00090430860FFE7109880798007002809D5BB
:1006F000FFE70D9A40F20441C4F20101086810437B
:10070000086008E00D9A40F20441C4F20101086853
:1007100090430860FFE710988079C006002809D54B
:10072000FFE70D9A40F20841C4F201010868104346
:10073000086008E00D9A40F20841C4F2010108681F
:1007400090430860FFE7109880798006002809D55B
:10075000FFE70D9A40F20C41C4F201010868104312
:10076000086008E00D9A40F20C41C4F201010868EB
:1007700090430860FFE7FFE7FFE70F9801300F9015
:100780005DE612B07047000082B00190ADF8021033
:100790008DF801209DF8010028B1FFE7BDF80200A7
:1007A0000199086105E0BDF80200000401990861A3
:1007B000FFE702B07047000080B501F011FD80BD79
:1007C00080B542F20001C4F20201086840F0100056
:1007D0000860032000F088F80F2000F005F800F012
:1007E0003BF8002080BD000080B582B0009040F250
:1007F0000000C2F20000006840F22001C2F20001D5
:100800000A784FF47A71B1FBF2F1B0FBF1F000F02D
:100810004FFD20B1FFE701208DF8070018E0009898
:100820000F280DD8FFE700994FF0FF30002200F0AD
:1008300041F8009840F22401C2F20001086003E090
:1008400001208DF8070003E000208DF80700FFE786
:100850009DF8070002B080BD83B0FFE741F21800A9
:10086000C4F20200016841F001010160006800F07B
:10087000010002900298FFE7FFE741F21C00C4F27A
:100880000200016841F080510160006800F0805072
:1008900001900198FFE7FFE70421C4F20101086815
:1008A0000090009820F0E060009000980860FFE75A
:1008B00003B0704780B586B08DF81700049103929D
:1008C0000020029000F0CCFD02909DF917000190ED
:1008D00002980499039A00F0F9FC0146019800F08F
:1008E000C7FD06B080BD000080B582B001900198C0
:1008F00000F0E0FD02B080BD80B584B002900191AF
:10090000029820B9FFE701208DF80F001BE1019844
:1009100042F20001C4F20201096801F007018842B5
:1009200016D9FFE742F20000C4F20200016821F08C
:100930000701019A11430160006800F00700019966
:10094000884204D0FFE701208DF80F00FBE0FFE7AD
:1009500002980078800700282AD5FFE702980078DF
:100960004007002809D5FFE741F20401C4F2020163
:10097000086840F4E0600860FFE70298007800072C
:10098000002809D5FFE741F20401C4F2020108681A
:1009900040F460500860FFE741F20401C4F2020134
:1009A000086820F0F000029A926810430860FFE7A0
:1009B00002980078C007002860D0FFE702984068DE
:1009C00001280ED1FFE741F20000C4F202000068E6
:1009D0008003002804D4FFE701208DF80F00B2E067
:1009E00021E00298406802280ED1FFE741F20000A2
:1009F000C4F2020000688001002804D4FFE701204F
:100A00008DF80F009FE00DE041F20000C4F20200FB
:100A100000688007002804D4FFE701208DF80F004C
:100A200091E0FFE7FFE741F20401C4F20201086828
:100A300020F00300029A526810430860FFF7BCFEE2
:100A40000090FFE741F20400C4F20200006800F0E9
:100A50000C0002994968B0EB810F0ED0FFE7FFF759
:100A6000ABFE0099401A41F28931884204D3FFE776
:100A700003208DF80F0066E0E4E7FFE7019842F2FB
:100A80000001C4F20201096801F00701884216D290
:100A9000FFE742F20000C4F20200016821F0070102
:100AA000019A11430160006800F007000199884233
:100AB00004D0FFE701208DF80F0044E0FFE7029823
:100AC0000078400700280CD5FFE741F20401C4F28A
:100AD0000201086820F4E060029AD26810430860BE
:100AE000FFE702980078000700280DD5FFE741F2E4
:100AF0000401C4F20201086820F46050029A1269ED
:100B000040EAC2000860FFE700F022F841F2040169
:100B1000C4F202010968C9B20A0942F6E021C0F62E
:100B20000001895CC84040F20001C2F20001086087
:100B300040F22400C2F200000068FFF755FE0020DA
:100B40008DF80F00FFE79DF80F0004B080BD000096
:100B50008BB040F60E70C1F210000A9040F60A30D9
:100B6000C0F60C50099040F20670C0F608100890CC
:100B700040F20230C0F20450079040F20120ADF87C
:100B80001A0000200590049003900290019041F219
:100B90000400C4F2020000680590059800F00C0003
:100BA00001460091E0B3FFE70098042804D0FFE776
:100BB0000098082806D034E041F20020C0F27A0004
:100BC000019034E00598C0F3834107A8405C02908F
:100BD0009DF81600C007C0B1FFE741F20400C4F25F
:100BE0000200006800F400310DF11A0040EA5140A3
:100BF00000780490029841F20021C0F27A01484343
:100C00000499B0FBF1F0039007E0029840F6001160
:100C1000C0F23D0148430390FFE70398019006E0CE
:100C2000FFE741F20020C0F27A000190FFE701984F
:100C30000BB0704780B586B00490049820B9FFE7E8
:100C400001208DF817002EE304980078C0070028D3
:100C500000F0AE80FFE741F20400C4F20200006839
:100C600000F00C00042813D0FFE741F20400C4F2A6
:100C70000200006800F00C0008281BD1FFE741F2D9
:100C80000400C4F202000068C003002812D5FFE788
:100C900041F20000C4F2020000688003002808D579
:100CA000FFE70498406820B9FFE701208DF817009E
:100CB000F9E27CE0FFE704984068B0F5803F09D195
:100CC000FFE741F20001C4F20201086840F48030FD
:100CD000086032E00498406868B9FFE741F200011B
:100CE000C4F20201086820F480300860086820F42B
:100CF0008020086020E004984068B0F5A02F0DD156
:100D0000FFE741F20001C4F20201086840F48020CC
:100D10000860086840F4803008600CE041F200018F
:100D2000C4F20201086820F480300860086820F4EA
:100D300080200860FFE7FFE7FFE7FFE704984068CF
:100D4000D0B1FFE7FFF738FD0390FFE741F2000065
:100D5000C4F202000068800300280CD4FFE7FFF70C
:100D60002BFD0399401A652804D3FFE703208DF873
:100D7000170098E2EAE719E0FFF71EFD0390FFE78E
:100D800041F20000C4F202000068800300280CD584
:100D9000FFE7FFF711FD0399401A652804D3FFE729
:100DA00003208DF817007EE2EAE7FFE7FFE7FFE7A1
:100DB000049800788007002840F18D80FFE741F219
:100DC0000400C4F20200006810F00C0F13D0FFE71B
:100DD00041F20400C4F20200006800F00C00082890
:100DE00029D1FFE741F20400C4F202000068C00309
:100DF000002820D4FFE741F20000C4F2020000689E
:100E00008007002809D5FFE704980069012804D06D
:100E1000FFE701208DF8170045E241F20001C4F21E
:100E20000201086820F0F800049A526940EAC20002
:100E30000860FFE74EE00498006958B3FFE700211F
:100E4000C4F2422101200860FFF7B6FC0390FFE7DF
:100E500041F20000C4F202000068800700280CD4B0
:100E6000FFE7FFF7A9FC0399401A032804D3FFE723
:100E700003208DF8170016E2EAE741F20001C4F200
:100E80000201086820F0F800049A526940EAC200A2
:100E900008601EE00021C4F2422100200860FFF734
:100EA0008BFC0390FFE741F20000C4F202000068EF
:100EB000800700280CD5FFE7FFF77EFC0399401A56
:100EC000032804D3FFE703208DF81700EBE1EAE7DE
:100ED000FFE7FFE7FFE7049800780007002848D500
:100EE000FFE70498806918B3FFE740F28041C4F23D
:100EF000422101200860FFF75FFC0390FFE741F209
:100F00002400C4F202000068800700280CD4FFE728
:100F1000FFF752FC0399401A032804D3FFE703208C
:100F20008DF81700BFE1EAE7012000F005FA1FE0A5
:100F300040F28041C4F2422100200860FFF73CFCEF
:100F40000390FFE741F22400C4F20200006880072A
:100F500000280CD5FFE7FFF72FFC0399401A032860
:100F600004D3FFE703208DF817009CE1EAE7FFE7D1
:100F7000FFE7049800784007002840F1D880FFE799
:100F800000208DF8070041F21C00C4F20200006846
:100F9000C000002813D4FFE7FFE741F21C00C4F2B1
:100FA0000200016841F080510160006800F080504B
:100FB00000900098FFE701208DF80700FFE747F257
:100FC0000000C4F200000068C005002822D4FFE73A
:100FD00047F20001C4F20001086840F48070086024
:100FE000FFF7EAFB0390FFE747F20000C4F20000BE
:100FF0000068C00500280CD4FFE7FFF7DDFB03996C
:10100000401A652804D3FFE703208DF817004AE152
:10101000EAE7FFE7FFE70498C068012809D1FFE786
:1010200041F22001C4F20201086840F001000860AA
:1010300031E00498C06868B9FFE741F22001C4F2CA
:101040000201086820F001000860086820F0040030
:1010500008601FE00498C06805280DD1FFE741F241
:101060002001C4F20201086840F00400086008682A
:1010700040F0010008600CE041F22001C4F20201DE
:10108000086820F001000860086820F0040008608B
:10109000FFE7FFE7FFE7FFE70498C068E0B1FFE77D
:1010A000FFF78AFB0390FFE741F22000C4F2020041
:1010B0000068800700280ED4FFE7FFF77DFB039947
:1010C000401A41F28931884204D3FFE703208DF8AA
:1010D0001700E8E0E8E71BE0FFF76EFB0390FFE78F
:1010E00041F22000C4F202000068800700280ED5FB
:1010F000FFE7FFF761FB0399401A41F2893188420B
:1011000004D3FFE703208DF81700CCE0E8E7FFE702
:101110009DF80700012809D1FFE741F21C01C4F244
:101120000201086820F080500860FFE7FFE704989C
:10113000C069002800F0B380FFE741F20400C4F268
:101140000200006800F00C00082800F08280FFE731
:101150000498C06902285CD1FFE76021C4F24221F3
:1011600000200860FFF728FB0390FFE741F2000032
:10117000C4F202000068800100280CD5FFE7FFF7E9
:101180001BFB0399401A032804D3FFE703208DF8C3
:10119000170088E0EAE70498006AB0F5803F0CD1B8
:1011A000FFE741F20401C4F20201086820F40030B4
:1011B000049A926810430860FFE741F20401C4F208
:1011C0000201086820F47410049B1A6A5B6A1A43CF
:1011D000104308606021C4F2422101200860FFF73B
:1011E000EBFA0390FFE741F20000C4F2020000684E
:1011F000800100280CD4FFE7FFF7DEFA0399401ABC
:10120000032804D3FFE703208DF817004BE0EAE73B
:101210001EE06021C4F2422100200860FFF7CCFAF2
:101220000390FFE741F20000C4F202000068800171
:1012300000280CD5FFE7FFF7BFFA0399401A0328EF
:1012400004D3FFE703208DF817002CE0EAE7FFE75F
:1012500024E00498C069012804D1FFE701208DF83B
:10126000170020E041F20400C4F20200006802907E
:10127000029800F480300499096A884208D1FFE797
:10128000029800F470100499496A884204D0FFE77C
:1012900001208DF8170006E0FFE7FFE7FFE70020D9
:1012A0008DF81700FFE79DF8170006B080BD00001D
:1012B00080B582B00190019800F05EF802B080BD68
:1012C000FFE7FEE7FFE7FEE7FFE7FEE788B00790EE
:1012D00006910592079800F0070004900498C0F169
:1012E0000700052803D3FFE70420019004E00498D9
:1012F000C0F107000190FFE70198039004980430C3
:10130000062803D8FFE70020009003E00498033884
:101310000090FFE70098029006980399012202FAD4
:1013200001F101390840029B984005999A40013A21
:101330001140084308B0704782B00190019840F214
:101340000001C2F200010968C90844F6D352C1F293
:101350006202A1FB0221890948430090FFE700BF18
:10136000FFE70098411E00910028F8D1FFE702B086
:10137000704700007047000080B582B00090009870
:101380000138B0F1807F03D3FFE70120019019E01D
:10139000009801384EF21401CEF2000108604FF0BF
:1013A000FF300F2100F064F84EF21801CEF2000178
:1013B000002008604EF21002CEF2000207211160F8
:1013C0000190FFE7019802B080BD000080B592B0A7
:1013D000FFE741F21C00C4F20200016841F08051B5
:1013E0000160006800F0805011901198FFE707A895
:1013F00001902821FEF7F9FF019800230693059339
:10140000049303930293012207924FF480310891D1
:1014100009930B9202220E920F914FF4E01110915A
:10142000FFF708FC18B1FFE7FFF700F8FFE70F2010
:10143000029002210391002004904FF480620592F3
:10144000069002A8FFF758FA18B1FFE7FEF7EEFF83
:10145000FFE712B080BD000070470000FFE7FEE725
:101460004EF60C50CEF200000068C0F30220704728
:1014700082B08DF8070000919DF9070000280AD47A
:10148000FFE7009800019DF907104EF20042CEF2EE
:10149000000288540BE0009800019DF8071001F04D
:1014A0000F014EF61452CEF200028854FFE702B04C
:1014B0007047000083B00290029800F0070000908F
:1014C0004EF60C51CEF200010868019001984FF6DB
:1014D000FF02104001900198009A40EA0220002289
:1014E000C0F2FA52104301900198086003B07047AF
:1014F00080B500F075F900F0A9FE40F25C01C2F27F
:1015000000010020086040F25801C2F200010860AA
:1015100040F25401C2F20001086040F25001C2F2F0
:101520000001086040F24001C2F20001086040F290
:101530003C01C2F20001086040F22C01C2F200013D
:10154000086040F22801C2F20001086040F2380150
:10155000C2F20001086040F23401C2F200010860EA
:1015600040F24C01C2F20001086040F24801C2F2B0
:101570000001086080BD000080B582B040F2040028
:10158000C2F20000006810F10F3F13D0FFE740F2F5
:101590000401C2F200014FF0F0300860FEF7C8FE0F
:1015A000FFF7A6FF40F27801C2F20001086801309F
:1015B0000860FFE740F20401C2F2000101914FF020
:1015C000F030086040F24400C2F20000006801F010
:1015D00069FA019900200860FEF7BAFD02B080BDEB
:1015E00080B592B0DDF864C0DDF860C0DDF85CC0A5
:1015F000DDF858C0DDF854C0DDF850C009900891FE
:10160000079206930020019014981599EF22FEF797
:10161000E5FE0998B421FEF7E8FE0898099988626A
:101620000798099948640698099988641498099953
:10163000C86015980999486116980999C862169862
:101640000999C1F89400189809998861189809991E
:10165000C86109992020C1F89C0014980090009955
:101660001598084401380090009809990861179866
:101670000999C86317980999C1F898000999032036
:101680000863099942F26D10C0F600004865099898
:101690008065099841F66901C0F60001FEF7B0FDCA
:1016A000EFF310800B900B980A9072B60A98059091
:1016B000099945F24420C5F24840086040F26000B4
:1016C000C2F20000006868B9FFE7099840F26401BF
:1016D000C2F2000108600998C0F888000998C0F8B3
:1016E0008C001AE040F26400C2F20000006804902E
:1016F0000498D0F88C00039009980499C1F88C00E4
:1017000009980399C1F8880003980999C1F88C00D9
:1017100004980999C1F88800FFE740F26001C2F21D
:10172000000108680130086040F27801C2F200014F
:101730000868013008601998012832D1FFE740F2AB
:101740000400C2F200000068EFF305810C910C99CF
:101750000843B0F1F03F11D3FFE740F26C00C2F252
:10176000000000680290029838B1FFE70298C06B51
:1017700001900299C86AC863FFE702E00020029066
:10178000FFE705980D900D9880F31088099800F0F8
:1017900095F9029820B1FFE701980299C863FFE725
:1017A0001BE005980E900E9880F31088EFF31080E0
:1017B000109010980F9072B60F98059040F2780133
:1017C000C2F200010868013808600598119011986C
:1017D00080F3108800F03AF9FFE7002012B080BDD6
:1017E00080B582B040F26801C2F200010020019091
:1017F000086040F26C01C2F20001086040F2001182
:10180000C2F20001086040F27C01C2F200010860EF
:1018100040F27001C2F200012020086040F2800016
:10182000C2F200008021FEF7E0FD019840F2640161
:10183000C2F20001086040F26001C2F200010860DB
:1018400040F27801C2F20001086040F27401C2F275
:101850000001086040F23001C2F20001086840F067
:101860008070086002B080BD80B58AB040F2680028
:10187000C2F2000000680290EFF310800590059816
:10188000049072B6049803900298D0F8AC000190CE
:1018900003980690069880F31088019828B1FFE716
:1018A000019A029800219047FFE70298416C806CF2
:1018B000884740F27400C2F20000006840B1FFE7C0
:1018C00040F27400C2F20000016802988847FFE706
:1018D000EFF3108008900898079072B6079803906D
:1018E0000298D0F8AC000190029901200863029997
:1018F000886302990020C86440F27801C2F20001B6
:1019000008680130086003980990099880F31088EE
:10191000019828B1FFE7019A029801219047FFE75B
:10192000029800F005FA0AB080BD000080B58EB0C4
:101930000490EFF3108006900698059072B6059813
:10194000039040F26800C2F2000000680190019824
:1019500040B9FFE703980790079880F31088132099
:10196000029062E040F20400C2F200000068EFF36F
:10197000058108910899084340B1FFE70398099051
:10198000099880F31088132002904DE0019840F2EE
:10199000B811C2F20001884208D1FFE703980A900B
:1019A0000A9880F31088132002903CE0049840B914
:1019B000FFE703980B900B9880F3108800200290AB
:1019C00030E040F27800C2F20000006840B1FFE76A
:1019D00003980C900C9880F310881320029020E05C
:1019E000019904200863019901208863019900206E
:1019F000C1F8840004980199C86440F27801C2F2E9
:101A0000000108680130086003980D900D9880F37C
:101A10001088019800F08CF90198D0F884000290A9
:101A2000FFE7FFE7FFE7FFE7FFE702980EB080BDA3
:101A300082B00190019818B1FFE7FF20009002E00A
:101A4000FF200090FFE7009802B0704787B040F297
:101A50007800C2F2000000680290029860BBFFE7C5
:101A600040F26800C2F200000068019040F26C0091
:101A7000C2F20000006800900198009988421AD0D4
:101A8000FFE74EF60451CEF200014FF0805008609F
:101A9000EFF305800490049860B9FFE7EFF310803E
:101AA00005900598039062B603980690069880F317
:101AB0001088FFE7FFE7FFE707B0704780B596B0F3
:101AC0000990EFF310800B900B980A9072B60A9869
:101AD00008900998406E28B1FFE709984C3000F053
:101AE000AFFC03E009990020C864FFE740F27801E9
:101AF000C2F200010868013808600998806B00286C
:101B000040F0BD80FFE70998006B002800F0B68028
:101B1000FFE70998406B002840F0A880FFE709998B
:101B2000002008630998C06A0790079940F2800076
:101B3000C2F2000050F8210005900598002840F0FE
:101B40008480FFE70998079A40F28001C2F2000101
:101B500041F8220009980062099840620799012023
:101B60008840069040F20011C2F200010868069A0F
:101B700010430860079840F27001C2F20001096842
:101B8000884261D2FFE7079840F27001C2F200017B
:101B9000086040F26C00C2F20000006803900398F5
:101BA00038B9FFE7099840F26C01C2F20001086001
:101BB00049E007980399C96B884243D2FFE703982D
:101BC000C16AC06B88420ED0FFE70398C16A01204A
:101BD0008840069040F27C01C2F200010868069A33
:101BE00010430860FFE7099840F26C01C2F200015F
:101BF000086008980C900C9880F3108840F27800E8
:101C0000C2F20000006801900198D0B9FFE74EF6DB
:101C10000451CEF200014FF080500860EFF30580D0
:101C20000E900E9860B9FFE7EFF310800F900F98B9
:101C30000D9062B60D981090109880F31088FFE711
:101C4000FFE772E0FFE7FFE70FE00598406A0490C6
:101C500009980499086209980599486204980999B5
:101C60004862059809990862FFE706E00999002093
:101C70004863099903200863FFE7FFE71DE009981F
:101C8000006B012818D0FFE70998006B022812D0DA
:101C9000FFE70998406B30B9FFE709990020886396
:101CA0000999086306E0099900204863099903200F
:101CB0000863FFE7FFE7FFE7FFE740F26800C2F2D3
:101CC00000000068029008981190119880F3108825
:101CD000029840F26C01C2F200010968884224D0E7
:101CE000FFE740F27800C2F200000068019001981E
:101CF000D0B9FFE74EF60451CEF200014FF080500C
:101D00000860EFF305801390139860B9FFE7EFF3D5
:101D1000108014901498129062B61298159015982D
:101D200080F31088FFE7FFE7FFE716B080BD0000F3
:101D300080B5A0B00B9040F26800C2F200000068CD
:101D40000290EFF310800D900D980C9072B60C98E5
:101D50000A900B980299884218D1FFE70B98C06C43
:101D60000190019850B1FFE70198013028B1FFE7D9
:101D70000B984C3000F0FAFAFFE7FFE70B98C069C8
:101D800040F26C61C2F200010860FFE740F27801A6
:101D9000C2F200010868013808600B98806B0128C6
:101DA00040F05C81FFE70B99002088630B98C06AC4
:101DB00009900B98006A049004980B99884232D0DD
:101DC000FFE70B98406A03900398049948620498CF
:101DD00003990862099940F28000C2F2000050F8AD
:101DE00021000B9988421DD1FFE70498099A40F21F
:101DF0008001C2F2000141F8220040F27C00C2F2F0
:101E00000000006868B1FFE709990120884006904A
:101E100040F27C01C2F200010868069A9043086013
:101E2000FFE7FFE779E0099A40F28001C2F2000182
:101E3000002041F82200099901208840069040F2D4
:101E40000011C2F200010868069A9043086040F24F
:101E50007C00C2F20000006868B1FFE70999012028
:101E60008840069040F27C01C2F200010868069AA0
:101E700090430860FFE70020089040F20010C2F293
:101E80000000006807900798A8BBFFE740F27001C8
:101E9000C2F200012020086040F26C01C2F2000191
:101EA000002008600A980E900E9880F3108840F287
:101EB0007800C2F20000006805900598D0B9FFE7ED
:101EC0004EF60451CEF200014FF080500860EFF35F
:101ED00005801090109860B9FFE7EFF31080119023
:101EE00011980F9062B60F981290129880F3108894
:101EF000FFE7FFE7E5E0079890FAA0F00790079862
:101F0000B0FA80F0069008980699084440F27001F3
:101F1000C2F200010860FFE7FFE70B9840F26C0196
:101F2000C2F200010968884240F09780FFE740F262
:101F30007000C2F20000016840F28000C2F20000AE
:101F400050F8210040F26C01C2F20001086040F23A
:101F50007C00C2F200000068002855D0FFE740F284
:101F60007801C2F200010868013008600A981390F5
:101F7000139880F31088EFF3108015901598149043
:101F800072B614980A90086801380860002008901A
:101F900040F27C00C2F2000000680790079890FAB7
:101FA000A0F007900798B0FA80F00690089806997C
:101FB0000844099040F27000C2F200000068099ADB
:101FC00040F28001C2F2000151F82210C96B884230
:101FD00019D3FFE7099940F28000C2F2000050F8DF
:101FE000210040F26C01C2F2000108600999012051
:101FF0008840069040F27C01C2F200010868069A0F
:1020000090430860FFE7FFE70A981690169880F360
:10201000108840F27800C2F2000000680590059830
:10202000D0B9FFE74EF60451CEF200014FF08050D8
:102030000860EFF305801890189860B9FFE7EFF398
:10204000108019901998179062B617981A901A98DC
:1020500080F31088FFE7FFE733E0FFE70A981B9063
:102060001B9880F31088029840F26C01C2F20001C4
:102070000968884224D0FFE740F27800C2F20000ED
:10208000006805900598D0B9FFE74EF60451CEF2EE
:1020900000014FF080500860EFF305801D901D98FF
:1020A00060B9FFE7EFF310801E901E981C9062B697
:1020B0001C981F901F9880F31088FFE7FFE7FFE749
:1020C000FFE720B080BD000085B040F26800C2F29A
:1020D000000000680090EFF31080039003980290D6
:1020E00072B60298019040F21811C2F2000100206D
:1020F0000860009890B3FFE70098006B68BBFFE7AB
:102100000099C86988610098806940F26C61C2F2E8
:10211000000108600099086A88421DD0FFE7009915
:10212000C86AC96B884216D1FFE70098016AC26A83
:1021300040F28000C2F2000040F8221040F270012C
:10214000C2F20001096850F8210040F26C01C2F2AD
:1021500000010860FFE7FFE7FFE7FFE70198049051
:10216000049880F3108805B07047000080B58AB0ED
:10217000059005980390EFF310800790079806905C
:1021800072B6069804900398006B042810D1FFE7FC
:1021900040F27801C2F2000108680130086004983A
:1021A0000890089880F310880398FFF787FC14E0E4
:1021B0000398806E02900398D0F8B00001900498C4
:1021C0000990099880F31088029828B1FFE7029AD5
:1021D000039801999047FFE7FFE70AB080BD000030
:1021E00085B0EFF3108003900398029072B60298C6
:1021F000019040F2B410C2F2000000680090019813
:102200000490049880F31088009805B0704700008F
:1022100080B584B0EFF3108002900298019072B6FE
:102220000198009040F27801C2F200010868013084
:10223000086000980390039880F3108840F2B8106B
:10224000C2F20000FFF73AFC04B080BD80B58AB04E
:1022500040F2B411C2F2000100200890086040F280
:102260006C61C2F20001086040F21811C2F2000174
:10227000086040F21411C2F20001086040F21C1123
:10228000C2F20001086040F22010C2F20000079084
:102290008021FEF7AAF80799089840F2A412C2F22A
:1022A0000002116040F21012C2F2000211607C3193
:1022B00040F2A012C2F200021160116804311160F4
:1022C00040F2B012C2F2000240F26C21C2F20001F0
:1022D000116040F2AC12C2F200024FF48061116052
:1022E00040F2A811C2F200010860FFE740F2B0100E
:1022F000C2F20000006840F2AC11C2F200010A68AC
:1023000040F2A811C2F200010B6869464FF0000CC0
:10231000C1F814C0C1F810C0CB608B604A6008607F
:1023200040F2B810C2F2000042F6F021C0F60001FF
:1023300042F2B142C0F6000244F64D13C4F2541307
:10234000FFF74EF90990FFE709980028CED1FFE783
:1023500040F20C11C2F200010020086040F20811A6
:10236000C2F2000108600AB080BD000087B006908C
:10237000069800680190019800285FD0FFE7019857
:102380000130002859D0FFE706988069002853D112
:10239000FFE70198212803D3FFE71F20009003E007
:1023A000019801380090FFE740F21010C2F20000DF
:1023B0000068009900EB81000590059840F2A0119B
:1023C000C2F200010968884213D3FFE7059840F282
:1023D000A011C2F200010968401A8010029040F278
:1023E000A410C2F200000068029900EB8100059081
:1023F000FFE70598006840B9FFE706980061069876
:10240000406106980599086012E0059800680490FC
:102410000498406903900698039908610698049906
:102420004861049806990861039806994861FFE796
:10243000059806998861FFE7FFE7FFE707B0704757
:1024400084B00390039880690290029870B3FFE70C
:102450000398006901900398019988420BD1FFE726
:10246000029800680399884204D1FFE7029900208E
:102470000860FFE716E00398406900900098019912
:1024800048610198009908610298006803998842A0
:1024900007D1FFE7029801998861019802990860C5
:1024A000FFE7FFE7039900208861FFE704B070476A
:1024B00080B598B00A90002002900A9844F64D1119
:1024C000C4F25411884240F0FD80FFE7FFE7EFF3CC
:1024D00010800C900C980B9072B60B98099040F2FB
:1024E0001010C2F20000006800680890089820B13F
:1024F000FFE7089908A88861FFE740F21010C2F2D0
:102500000000026800211160016804310160006868
:1025100040F2A011C2F20001096888420BD1FFE726
:1025200040F2A410C2F20000006840F21011C2F2A2
:1025300000010860FFE740F21411C2F20001002020
:10254000086009980D900D9880F31088EFF31080C3
:102550000F900F980E9072B60E980990FFE70898AA
:10256000002800F08680FFE708980490089800692A
:1025700006900020079004980699884203D1FFE74F
:10258000002008900EE0049840690590059806998F
:102590004861069805990861069908A88861069817
:1025A0000890FFE70498006821280ED3FFE70499FC
:1025B00008682038086000200390049907A8886103
:1025C000049800610498079019E0049880680390CB
:1025D0000498C068029004994868086004980068EC
:1025E00040B1FFE7049907A8886104980061049846
:1025F000079003E0049900208861FFE7FFE7049853
:1026000040F21C11C2F20001086009981090109865
:1026100080F31088039820B1FFE703990298884758
:10262000FFE7EFF3108012901298119072B6119894
:10263000099040F21C11C2F20001002008600798C6
:102640000499884207D1FFE7049900208861049823
:10265000FFF78CFEFFE709981390139880F310881A
:10266000EFF3108015901598149072B61498099095
:1026700075E740F21410C2F200000068D8B9FFE715
:1026800040F2B810C2F200000190019903200863E3
:1026900001990120886340F27801C2F200010868C4
:1026A0000130086009981690169880F310880198F8
:1026B000FFF73EFB05E009981790179880F3108804
:1026C000FFE704E718B080BD2DE9F0419AB0DDF8CE
:1026D00098C0DDF894C0DDF890C0DDF88CC0DDF85E
:1026E00088C0DDF884C0DDF880C0119010910F9291
:1026F0000E9300200C90119818B9FFE70E200C9053
:10270000F0E02698B42803D0FFE70E200C90E8E014
:10271000EFF3108013901398129072B612980D90E8
:1027200040F27801C2F200010868013008600D989B
:102730001490149880F3108800200B9040F26401EC
:10274000C2F200010968099120990791079A21991D
:10275000114401390791079908910A90FFE70A98F7
:1027600040F26001C2F20001096888423AD2FFE7F4
:1027700011980999884203D1FFE701200B90FFE7E8
:102780000B98012801D1FFE72CE020980999C9682E
:1027900088420CD3FFE7209809990969884205D23D
:1027A000FFE70020209001200B90FFE7FFE708984B
:1027B0000999C96888420CD3FFE708980999096903
:1027C000884205D2FFE70020209001200B90FFE710
:1027D000FFE70998D0F888000990FFE70A980130D0
:1027E0000A90BCE7EFF3108016901698159072B619
:1027F00015980D9040F27801C2F200010868013886
:1028000008600D981790179880F31088FFF71EF94D
:1028100011980999884203D1FFE70E200C905FE0E0
:10282000209818B9FFE703200C9058E00F9818B9CA
:10283000FFE703200C9051E02198C72803D8FFE759
:1028400005200C9049E02298202803D3FFE70F20B1
:102850000C9041E023982299884203D9FFE7182081
:102860000C9038E02598022803D3FFE710200C9045
:1028700030E040F26800C2F200000068069006985E
:1028800040F2B811C2F20001884203D1FFE71320E1
:102890000C90FFE740F20400C2F200000068EFF382
:1028A000058118911899084398B1FFE740F2040098
:1028B000C2F200000068EFF30581199119990843ED
:1028C0000009B0F10F3F03D2FFE713200C90FFE7A0
:1028D000FFE7FFE7FFE7FFE7FFE7FFE7FFE7FFE7C8
:1028E000FFE7FFE70C98E8B9FFE7119810990F9AF6
:1028F0000E9BDDF880C0219C229D239E249FDDF845
:102900009480EE46CEF81480CEF81070CEF80C60AD
:10291000CEF80850CEF80440CEF800C0FEF760FEB6
:102920000C90FFE70C981AB0BDE8F08180B586B036
:102930000020059004900390029003210591ADF8CA
:102940000600FFE7BDF8060002282CD8FFE7BDF817
:10295000061040F20800C2F2000000EBC100C0798E
:1029600020B9FFE701200490039004E001200490C7
:1029700011200390FFE7BDF8061040F20800C2F2F4
:10298000000000EBC10189880291BDF8061050F8E3
:10299000310002A9FDF74CFDFFE7BDF8060001304C
:1029A000ADF80600CEE706B080BD000080B5FFF7A9
:1029B000BDFF80BD80B582B08DF807009DF807008F
:1029C000022816D8FFE79DF8071040F20800C2F26F
:1029D000000000EBC100009000998879B0FA80F007
:1029E00040098871009A106891889279FDF7CCFEB1
:1029F000FFE702B080BD000080B582B001900120E9
:102A0000FFF7D8FF642000F03FF802B080BD00005F
:102A100080B58AB001200890FFF7CCFF0220FFF7B5
:102A2000C9FF00200990FFF7C5FF0898099B694678
:102A3000B4228A6148610B610F20C86088604FF43E
:102A40008060486040F22470C2F20000086040F2EA
:102A50007060C2F2000042F60431C0F6000142F696
:102A6000F912C0F60002FFF72FFE0AB080BD000089
:102A700080B500F011F8FEF77FFD002080BD00005A
:102A800081B00090FFE7FEE780B582B00190019829
:102A9000FEF74CFF02B080BD80B5FDF791FEFEF75A
:102AA00095FC80BD80B582B0019042F68120C0F6D1
:102AB0000000FEF7BDFFFFF779FFFFF7A9FF02B0A7
:102AC00080BD02E008C8121F08C1002AFAD1704771
:102AD0007047002001E001C1121F002AFBD170479E
:102AE00000000000000000000102030406070809BE
:102AF00053797374656D2054696D657220546872E2
:102B0000656164006C65645F6E6F64650000000061
:102B1000302B00080000002028000000C22A000816
:102B2000582B000828000020000F0000D22A0008BF
:102B30000024F400F0F0F0F0000C01402000000050
:102B4000000C014001000000000C014002000000E8
:082B500001000000100000006C
:0400000508000131BD
:00000001FF
